{
  "contractName": "digitalMarket",
  "abi": [
    {
      "constant": true,
      "inputs": [],
      "name": "authorCount",
      "outputs": [
        {
          "internalType": "uint256",
          "name": "",
          "type": "uint256"
        }
      ],
      "payable": false,
      "stateMutability": "view",
      "type": "function"
    },
    {
      "constant": true,
      "inputs": [],
      "name": "bookCount",
      "outputs": [
        {
          "internalType": "uint256",
          "name": "",
          "type": "uint256"
        }
      ],
      "payable": false,
      "stateMutability": "view",
      "type": "function"
    },
    {
      "constant": true,
      "inputs": [],
      "name": "readerCount",
      "outputs": [
        {
          "internalType": "uint256",
          "name": "",
          "type": "uint256"
        }
      ],
      "payable": false,
      "stateMutability": "view",
      "type": "function"
    },
    {
      "constant": false,
      "inputs": [
        {
          "internalType": "string",
          "name": "_name",
          "type": "string"
        },
        {
          "internalType": "string",
          "name": "_id",
          "type": "string"
        },
        {
          "internalType": "string",
          "name": "_country",
          "type": "string"
        }
      ],
      "name": "registerAuthor",
      "outputs": [],
      "payable": false,
      "stateMutability": "nonpayable",
      "type": "function"
    },
    {
      "constant": false,
      "inputs": [
        {
          "internalType": "string",
          "name": "_name",
          "type": "string"
        },
        {
          "internalType": "string",
          "name": "_id",
          "type": "string"
        }
      ],
      "name": "registerReader",
      "outputs": [],
      "payable": false,
      "stateMutability": "nonpayable",
      "type": "function"
    },
    {
      "constant": false,
      "inputs": [
        {
          "internalType": "string",
          "name": "_title",
          "type": "string"
        },
        {
          "internalType": "string",
          "name": "_isbn",
          "type": "string"
        },
        {
          "internalType": "uint256",
          "name": "_price",
          "type": "uint256"
        },
        {
          "internalType": "string",
          "name": "_author_id",
          "type": "string"
        }
      ],
      "name": "publishBook",
      "outputs": [],
      "payable": false,
      "stateMutability": "nonpayable",
      "type": "function"
    },
    {
      "constant": true,
      "inputs": [],
      "name": "getAuthorBooks",
      "outputs": [
        {
          "components": [
            {
              "internalType": "string",
              "name": "title",
              "type": "string"
            },
            {
              "internalType": "string",
              "name": "isbn",
              "type": "string"
            },
            {
              "internalType": "string",
              "name": "author",
              "type": "string"
            },
            {
              "internalType": "string",
              "name": "author_id",
              "type": "string"
            },
            {
              "internalType": "uint256",
              "name": "price",
              "type": "uint256"
            }
          ],
          "internalType": "struct digitalMarket.Book[]",
          "name": "",
          "type": "tuple[]"
        }
      ],
      "payable": false,
      "stateMutability": "view",
      "type": "function"
    },
    {
      "constant": false,
      "inputs": [
        {
          "internalType": "string",
          "name": "_title",
          "type": "string"
        },
        {
          "internalType": "string",
          "name": "_readerId",
          "type": "string"
        }
      ],
      "name": "purchaseBook",
      "outputs": [
        {
          "internalType": "uint256",
          "name": "",
          "type": "uint256"
        }
      ],
      "payable": false,
      "stateMutability": "nonpayable",
      "type": "function"
    },
    {
      "constant": true,
      "inputs": [],
      "name": "getReaderBooks",
      "outputs": [
        {
          "components": [
            {
              "internalType": "string",
              "name": "title",
              "type": "string"
            },
            {
              "internalType": "string",
              "name": "isbn",
              "type": "string"
            },
            {
              "internalType": "string",
              "name": "author",
              "type": "string"
            },
            {
              "internalType": "uint256",
              "name": "price",
              "type": "uint256"
            },
            {
              "internalType": "string",
              "name": "reader",
              "type": "string"
            }
          ],
          "internalType": "struct digitalMarket.Book2[]",
          "name": "",
          "type": "tuple[]"
        }
      ],
      "payable": false,
      "stateMutability": "view",
      "type": "function"
    }
  ],
  "bytecode": "0x608060405234801561001057600080fd5b50611c6e806100206000396000f3fe608060405234801561001057600080fd5b50600436106100935760003560e01c8063b6e3cc1a11610066578063b6e3cc1a14610120578063b905ad781461013e578063dc8ef3521461015c578063f2c5bbde14610178578063f3986aeb1461019457610093565b806316d1d9411461009857806337a5011d146100b657806372d87ab2146100d25780638276664814610102575b600080fd5b6100a06101b2565b6040516100ad91906119f7565b60405180910390f35b6100d060048036036100cb9190810190611441565b6104a3565b005b6100ec60048036036100e791908101906113d5565b61059c565b6040516100f99190611a79565b60405180910390f35b61010a610b92565b6040516101179190611a79565b60405180910390f35b610128610b98565b6040516101359190611a79565b60405180910390f35b610146610b9e565b6040516101539190611a79565b60405180910390f35b610176600480360361017191908101906114d8565b610ba4565b005b610192600480360361018d91908101906113d5565b610dd1565b005b61019c610ea8565b6040516101a991906119d5565b60405180910390f35b60606005805480602002602001604051908101604052809291908181526020016000905b8282101561049a57838290600052602060002090600502016040518060a0016040529081600082018054600181600116156101000203166002900480601f0160208091040260200160405190810160405280929190818152602001828054600181600116156101000203166002900480156102925780601f1061026757610100808354040283529160200191610292565b820191906000526020600020905b81548152906001019060200180831161027557829003601f168201915b50505050508152602001600182018054600181600116156101000203166002900480601f0160208091040260200160405190810160405280929190818152602001828054600181600116156101000203166002900480156103345780601f1061030957610100808354040283529160200191610334565b820191906000526020600020905b81548152906001019060200180831161031757829003601f168201915b50505050508152602001600282018054600181600116156101000203166002900480601f0160208091040260200160405190810160405280929190818152602001828054600181600116156101000203166002900480156103d65780601f106103ab576101008083540402835291602001916103d6565b820191906000526020600020905b8154815290600101906020018083116103b957829003601f168201915b50505050508152602001600382018054600181600116156101000203166002900480601f0160208091040260200160405190810160405280929190818152602001828054600181600116156101000203166002900480156104785780601f1061044d57610100808354040283529160200191610478565b820191906000526020600020905b81548152906001019060200180831161045b57829003601f168201915b50505050508152602001600482015481525050815260200190600101906101d6565b50505050905090565b6104ab61120e565b83816000018190525082816020018190525081816040018190525060008160600181815250506001816080019015159081151581525050806001846040516104f391906119a7565b9081526020016040518091039020600082015181600001908051906020019061051d92919061123f565b50602082015181600101908051906020019061053a92919061123f565b50604082015181600201908051906020019061055792919061123f565b506060820151816003015560808201518160040160006101000a81548160ff021916908315150217905550905050600080815480929190600101919050555050505050565b60008015156003836040516105b191906119a7565b908152602001604051809103902060030160009054906101000a900460ff1615151415610613576040517f08c379a000000000000000000000000000000000000000000000000000000000815260040161060a90611a59565b60405180910390fd5b60005b6005805490508111610b51578360405160200161063391906119a7565b604051602081830303815290604052805190602001206005828154811061065657fe5b906000526020600020906005020160000160405160200161067791906119be565b604051602081830303815290604052805190602001201415610b445761069b6112bf565b600582815481106106a857fe5b90600052602060002090600502016000018054600181600116156101000203166002900480601f01602080910402602001604051908101604052809291908181526020018280546001816001161561010002031660029004801561074d5780601f106107225761010080835404028352916020019161074d565b820191906000526020600020905b81548152906001019060200180831161073057829003601f168201915b505050505081600001819052506005828154811061076757fe5b90600052602060002090600502016001018054600181600116156101000203166002900480601f01602080910402602001604051908101604052809291908181526020018280546001816001161561010002031660029004801561080c5780601f106107e15761010080835404028352916020019161080c565b820191906000526020600020905b8154815290600101906020018083116107ef57829003601f168201915b505050505081602001819052506005828154811061082657fe5b90600052602060002090600502016002018054600181600116156101000203166002900480601f0160208091040260200160405190810160405280929190818152602001828054600181600116156101000203166002900480156108cb5780601f106108a0576101008083540402835291602001916108cb565b820191906000526020600020905b8154815290600101906020018083116108ae57829003601f168201915b50505050508160400181905250600582815481106108e557fe5b90600052602060002090600502016004015481606001818152505060038460405161091091906119a7565b90815260200160405180910390206000018054600181600116156101000203166002900480601f0160208091040260200160405190810160405280929190818152602001828054600181600116156101000203166002900480156109b55780601f1061098a576101008083540402835291602001916109b5565b820191906000526020600020905b81548152906001019060200180831161099857829003601f168201915b50505050508160800181905250600681908060018154018082558091505090600182039060005260206000209060050201600090919290919091506000820151816000019080519060200190610a0c92919061123f565b506020820151816001019080519060200190610a2992919061123f565b506040820151816002019080519060200190610a4692919061123f565b50606082015181600301556080820151816004019080519060200190610a6d92919061123f565b505050506000610b3760058481548110610a8357fe5b90600052602060002090600502016003018054600181600116156101000203166002900480601f016020809104026020016040519081016040528092919081815260200182805460018160011615610100020316600290048015610b285780601f10610afd57610100808354040283529160200191610b28565b820191906000526020600020905b815481529060010190602001808311610b0b57829003601f168201915b50505050508360600151611199565b9050809350505050610b8c565b8080600101915050610616565b6040517f08c379a0000000000000000000000000000000000000000000000000000000008152600401610b8390611a39565b60405180910390fd5b92915050565b60025481565b60005481565b60045481565b60001515600182604051610bb891906119a7565b908152602001604051809103902060040160009054906101000a900460ff1615151415610c1a576040517f08c379a0000000000000000000000000000000000000000000000000000000008152600401610c1190611a19565b60405180910390fd5b610c226112ee565b84816000018190525083816020018190525082816080018181525050600182604051610c4e91906119a7565b90815260200160405180910390206000018054600181600116156101000203166002900480601f016020809104026020016040519081016040528092919081815260200182805460018160011615610100020316600290048015610cf35780601f10610cc857610100808354040283529160200191610cf3565b820191906000526020600020905b815481529060010190602001808311610cd657829003601f168201915b50505050508160400181905250818160600181905250600581908060018154018082558091505090600182039060005260206000209060050201600090919290919091506000820151816000019080519060200190610d5392919061123f565b506020820151816001019080519060200190610d7092919061123f565b506040820151816002019080519060200190610d8d92919061123f565b506060820151816003019080519060200190610daa92919061123f565b50608082015181600401555050506004600081548092919060010191905055505050505050565b610dd961131d565b828160000181905250818160200181905250600160025401816040018181525050600181606001901515908115158152505080600383604051610e1c91906119a7565b90815260200160405180910390206000820151816000019080519060200190610e4692919061123f565b506020820151816001019080519060200190610e6392919061123f565b506040820151816002015560608201518160030160006101000a81548160ff021916908315150217905550905050600260008154809291906001019190505550505050565b60606006805480602002602001604051908101604052809291908181526020016000905b8282101561119057838290600052602060002090600502016040518060a0016040529081600082018054600181600116156101000203166002900480601f016020809104026020016040519081016040528092919081815260200182805460018160011615610100020316600290048015610f885780601f10610f5d57610100808354040283529160200191610f88565b820191906000526020600020905b815481529060010190602001808311610f6b57829003601f168201915b50505050508152602001600182018054600181600116156101000203166002900480601f01602080910402602001604051908101604052809291908181526020018280546001816001161561010002031660029004801561102a5780601f10610fff5761010080835404028352916020019161102a565b820191906000526020600020905b81548152906001019060200180831161100d57829003601f168201915b50505050508152602001600282018054600181600116156101000203166002900480601f0160208091040260200160405190810160405280929190818152602001828054600181600116156101000203166002900480156110cc5780601f106110a1576101008083540402835291602001916110cc565b820191906000526020600020905b8154815290600101906020018083116110af57829003601f168201915b5050505050815260200160038201548152602001600482018054600181600116156101000203166002900480601f0160208091040260200160405190810160405280929190818152602001828054600181600116156101000203166002900480156111785780601f1061114d57610100808354040283529160200191611178565b820191906000526020600020905b81548152906001019060200180831161115b57829003601f168201915b50505050508152505081526020019060010190610ecc565b50505050905090565b6000816001846040516111ac91906119a7565b908152602001604051809103902060030154016001846040516111cf91906119a7565b9081526020016040518091039020600301819055506001836040516111f491906119a7565b908152602001604051809103902060030154905092915050565b6040518060a00160405280606081526020016060815260200160608152602001600081526020016000151581525090565b828054600181600116156101000203166002900490600052602060002090601f016020900481019282601f1061128057805160ff19168380011785556112ae565b828001600101855582156112ae579182015b828111156112ad578251825591602001919060010190611292565b5b5090506112bb9190611347565b5090565b6040518060a0016040528060608152602001606081526020016060815260200160008152602001606081525090565b6040518060a0016040528060608152602001606081526020016060815260200160608152602001600081525090565b60405180608001604052806060815260200160608152602001600081526020016000151581525090565b61136991905b8082111561136557600081600090555060010161134d565b5090565b90565b600082601f83011261137d57600080fd5b813561139061138b82611ac1565b611a94565b915080825260208301602083018583830111156113ac57600080fd5b6113b7838284611bc1565b50505092915050565b6000813590506113cf81611c14565b92915050565b600080604083850312156113e857600080fd5b600083013567ffffffffffffffff81111561140257600080fd5b61140e8582860161136c565b925050602083013567ffffffffffffffff81111561142b57600080fd5b6114378582860161136c565b9150509250929050565b60008060006060848603121561145657600080fd5b600084013567ffffffffffffffff81111561147057600080fd5b61147c8682870161136c565b935050602084013567ffffffffffffffff81111561149957600080fd5b6114a58682870161136c565b925050604084013567ffffffffffffffff8111156114c257600080fd5b6114ce8682870161136c565b9150509250925092565b600080600080608085870312156114ee57600080fd5b600085013567ffffffffffffffff81111561150857600080fd5b6115148782880161136c565b945050602085013567ffffffffffffffff81111561153157600080fd5b61153d8782880161136c565b935050604061154e878288016113c0565b925050606085013567ffffffffffffffff81111561156b57600080fd5b6115778782880161136c565b91505092959194509250565b600061158f8383611873565b905092915050565b60006115a383836118fe565b905092915050565b60006115b682611b22565b6115c08185611b68565b9350836020820285016115d285611aed565b8060005b8581101561160e57848403895281516115ef8582611583565b94506115fa83611b4e565b925060208a019950506001810190506115d6565b50829750879550505050505092915050565b600061162b82611b2d565b6116358185611b79565b93508360208202850161164785611afd565b8060005b8581101561168357848403895281516116648582611597565b945061166f83611b5b565b925060208a0199505060018101905061164b565b50829750879550505050505092915050565b60006116a082611b43565b6116aa8185611bac565b93506116ba818560208601611bd0565b80840191505092915050565b60006116d182611b38565b6116db8185611b8a565b93506116eb818560208601611bd0565b6116f481611c03565b840191505092915050565b60008154600181166000811461171c576001811461174157611785565b607f600283041661172d8187611bac565b955060ff1983168652808601935050611785565b6002820461174f8187611bac565b955061175a85611b0d565b60005b8281101561177c5781548189015260018201915060208101905061175d565b82880195505050505b505092915050565b600061179a601c83611b9b565b91507f417574686f7220696420206973206e6f742072656769737465726564000000006000830152602082019050919050565b60006117da603183611b9b565b91507f5469746c6520646964206e6f74206d617463682e204e6f20626f6f6b2077697460008301527f682073756368206e616d6520666f756e640000000000000000000000000000006020830152604082019050919050565b6000611840601c83611b9b565b91507f52656164657220696420206973206e6f742072656769737465726564000000006000830152602082019050919050565b600060a083016000830151848203600086015261189082826116c6565b915050602083015184820360208601526118aa82826116c6565b915050604083015184820360408601526118c482826116c6565b91505060608301516118d96060860182611989565b50608083015184820360808601526118f182826116c6565b9150508091505092915050565b600060a083016000830151848203600086015261191b82826116c6565b9150506020830151848203602086015261193582826116c6565b9150506040830151848203604086015261194f82826116c6565b9150506060830151848203606086015261196982826116c6565b915050608083015161197e6080860182611989565b508091505092915050565b61199281611bb7565b82525050565b6119a181611bb7565b82525050565b60006119b38284611695565b915081905092915050565b60006119ca82846116ff565b915081905092915050565b600060208201905081810360008301526119ef81846115ab565b905092915050565b60006020820190508181036000830152611a118184611620565b905092915050565b60006020820190508181036000830152611a328161178d565b9050919050565b60006020820190508181036000830152611a52816117cd565b9050919050565b60006020820190508181036000830152611a7281611833565b9050919050565b6000602082019050611a8e6000830184611998565b92915050565b6000604051905081810181811067ffffffffffffffff82111715611ab757600080fd5b8060405250919050565b600067ffffffffffffffff821115611ad857600080fd5b601f19601f8301169050602081019050919050565b6000819050602082019050919050565b6000819050602082019050919050565b60008190508160005260206000209050919050565b600081519050919050565b600081519050919050565b600081519050919050565b600081519050919050565b6000602082019050919050565b6000602082019050919050565b600082825260208201905092915050565b600082825260208201905092915050565b600082825260208201905092915050565b600082825260208201905092915050565b600081905092915050565b6000819050919050565b82818337600083830152505050565b60005b83811015611bee578082015181840152602081019050611bd3565b83811115611bfd576000848401525b50505050565b6000601f19601f8301169050919050565b611c1d81611bb7565b8114611c2857600080fd5b5056fea365627a7a72315820c7e9e81836225acdc6e56afa671b2167f7cda2cb7acbc05358c7637bee3b734f6c6578706572696d656e74616cf564736f6c634300050c0040",
  "source": "pragma solidity >=0.4.13 <0.6.0;\npragma experimental ABIEncoderV2;\n\ncontract digitalMarket {\n    struct Author {\n        string name;\n        string author_id;\n        string country;\n        uint   revenue;\n        bool exists;\n    }\n    uint public authorCount;\n    mapping (string => Author) authorBase;\n    \n    struct Reader {\n        string name;\n        string readerId;\n        uint count;\n        bool exists;\n    }\n    uint public readerCount;\n    mapping (string => Reader) readerBase;\n\n    struct Book {\n        string title;\n        string isbn;\n        string author;\n        string author_id;\n        uint price;\n    }\n    uint public bookCount;\n    Book[] private bookBase;\n    struct Book2 {\n        string title;\n        string isbn;\n        string author;\n        uint price;\n        string reader;\n    }\n    Book2[] private bookBase2;\n  //  mapping (string => Book) bookBase;\n\n    function registerAuthor(string memory _name, string memory _id, string memory _country) public {\n        Author memory a1;\n\n        a1.name = _name;\n        a1.author_id = _id;\n        a1.country = _country;\n        a1.revenue = 0;\n        a1.exists = true;\n\n    authorBase[_id] = a1;\n    authorCount++;\n    }\n    function registerReader(\n        string memory _name,\n        string memory _id) public {\n        Reader memory r1;\n\n        r1.name = _name;\n        r1.readerId = _id;\n        r1.count = readerCount + 1;\n        r1.exists = true;\n\n        readerBase[_id] = r1;\n        readerCount++;\n        }\n\n    function publishBook(\n        string memory _title,\n        string memory _isbn,\n        uint  _price,\n        string memory _author_id\n        ) public {\n        if(authorBase[_author_id].exists == false) {\n            revert('Author id  is not registered');  \n        }\n        Book memory b1;\n        b1.title = _title;\n        b1.isbn = _isbn;\n        b1.price = _price;\n        b1.author = authorBase[_author_id].name;\n        b1.author_id = _author_id;\n        bookBase.push(b1);\n        bookCount++;\n    }\n    // function getAuthorBooks (string memory _authorName) public view  returns(string[] memory){\n    //     uint itr;\n    //     uint itr2;\n    //     string[] memory bookList;\n    //     for(itr; itr <= bookBase.length; itr++) {\n    //         if(keccak256(abi.encodePacked(bookBase[itr].author)) == keccak256(abi.encodePacked(_authorName))){\n    //             Book memory b1;\n    //             b1 = bookBase[itr];\n    //             bookList[itr2] = b1.title;\n    //             itr2++;\n    //         }\n        \n    //     }\n    //     return bookList;\n    // }\n    function getAuthorBooks() public view returns(Book[] memory){\n        return bookBase;\n        \n    }\n       function purchaseBook(\n        string memory _title,\n        string memory _readerId\n\n        ) public returns(uint) {\n        if(readerBase[_readerId].exists == false) {\n            revert('Reader id  is not registered');  \n        }\n        uint itr;\n        for(itr; itr <= bookBase.length; itr++) {\n            if(keccak256(abi.encodePacked(bookBase[itr].title)) == keccak256(abi.encodePacked(_title))){\n                Book2 memory b2;\n                b2.title = bookBase[itr].title;\n                b2.isbn = bookBase[itr].isbn;\n                b2.author = bookBase[itr].author;\n                b2.price = bookBase[itr].price;\n                b2.reader = readerBase[_readerId].name;\n                bookBase2.push(b2);\n                uint rev = payAuthor(bookBase[itr].author_id, b2.price);\n                return(rev);\n            }\n            }\n            revert('Title did not match. No book with such name found');\n    }\n    function getReaderBooks() public view returns(Book2[] memory){\n        return bookBase2;\n        \n    }\n    function payAuthor(string memory _author_id, uint price) internal returns\n    (uint){\n         authorBase[_author_id].revenue = authorBase[_author_id].revenue + price;\n         return authorBase[_author_id].revenue;\n    }\n}",
  "sourcePath": "/home/vector/digital_market/contracts/digitalMarket.sol",
  "compiler": {
    "name": "solc",
    "version": "0.5.12+commit.7709ece9.Emscripten.clang"
  },
  "schemaVersion": "3.0.20",
  "updatedAt": "2020-01-13T20:06:21.532Z",
  "networkType": "ethereum",
  "devdoc": {
    "methods": {}
  },
  "userdoc": {
    "methods": {}
  }
}