{
  "contractName": "digitalMarket",
  "abi": [
    {
      "constant": true,
      "inputs": [],
      "name": "authorCount",
      "outputs": [
        {
          "internalType": "uint256",
          "name": "",
          "type": "uint256"
        }
      ],
      "payable": false,
      "stateMutability": "view",
      "type": "function"
    },
    {
      "constant": true,
      "inputs": [],
      "name": "bookCount",
      "outputs": [
        {
          "internalType": "uint256",
          "name": "",
          "type": "uint256"
        }
      ],
      "payable": false,
      "stateMutability": "view",
      "type": "function"
    },
    {
      "constant": true,
      "inputs": [],
      "name": "readerCount",
      "outputs": [
        {
          "internalType": "uint256",
          "name": "",
          "type": "uint256"
        }
      ],
      "payable": false,
      "stateMutability": "view",
      "type": "function"
    },
    {
      "constant": false,
      "inputs": [
        {
          "internalType": "string",
          "name": "_name",
          "type": "string"
        },
        {
          "internalType": "string",
          "name": "_id",
          "type": "string"
        },
        {
          "internalType": "string",
          "name": "_country",
          "type": "string"
        }
      ],
      "name": "registerAuthor",
      "outputs": [],
      "payable": false,
      "stateMutability": "nonpayable",
      "type": "function"
    },
    {
      "constant": false,
      "inputs": [
        {
          "internalType": "string",
          "name": "_name",
          "type": "string"
        },
        {
          "internalType": "string",
          "name": "_id",
          "type": "string"
        }
      ],
      "name": "registerReader",
      "outputs": [],
      "payable": false,
      "stateMutability": "nonpayable",
      "type": "function"
    },
    {
      "constant": false,
      "inputs": [
        {
          "internalType": "string",
          "name": "_title",
          "type": "string"
        },
        {
          "internalType": "string",
          "name": "_isbn",
          "type": "string"
        },
        {
          "internalType": "uint256",
          "name": "_price",
          "type": "uint256"
        },
        {
          "internalType": "string",
          "name": "_author_id",
          "type": "string"
        }
      ],
      "name": "publishBook",
      "outputs": [],
      "payable": false,
      "stateMutability": "nonpayable",
      "type": "function"
    },
    {
      "constant": true,
      "inputs": [],
      "name": "getAuthorBooks",
      "outputs": [
        {
          "components": [
            {
              "internalType": "string",
              "name": "title",
              "type": "string"
            },
            {
              "internalType": "string",
              "name": "isbn",
              "type": "string"
            },
            {
              "internalType": "string",
              "name": "author",
              "type": "string"
            },
            {
              "internalType": "string",
              "name": "author_id",
              "type": "string"
            },
            {
              "internalType": "uint256",
              "name": "price",
              "type": "uint256"
            }
          ],
          "internalType": "struct digitalMarket.Book[]",
          "name": "",
          "type": "tuple[]"
        }
      ],
      "payable": false,
      "stateMutability": "view",
      "type": "function"
    },
    {
      "constant": false,
      "inputs": [
        {
          "internalType": "string",
          "name": "_title",
          "type": "string"
        },
        {
          "internalType": "string",
          "name": "_readerId",
          "type": "string"
        }
      ],
      "name": "purchaseBook",
      "outputs": [
        {
          "internalType": "uint256",
          "name": "",
          "type": "uint256"
        }
      ],
      "payable": false,
      "stateMutability": "nonpayable",
      "type": "function"
    },
    {
      "constant": true,
      "inputs": [],
      "name": "getReaderBooks",
      "outputs": [
        {
          "components": [
            {
              "internalType": "string",
              "name": "title",
              "type": "string"
            },
            {
              "internalType": "string",
              "name": "isbn",
              "type": "string"
            },
            {
              "internalType": "string",
              "name": "author",
              "type": "string"
            },
            {
              "internalType": "uint256",
              "name": "price",
              "type": "uint256"
            },
            {
              "internalType": "string",
              "name": "reader",
              "type": "string"
            }
          ],
          "internalType": "struct digitalMarket.Book2[]",
          "name": "",
          "type": "tuple[]"
        }
      ],
      "payable": false,
      "stateMutability": "view",
      "type": "function"
    },
    {
      "constant": true,
      "inputs": [
        {
          "internalType": "string",
          "name": "_key",
          "type": "string"
        }
      ],
      "name": "getAuthor",
      "outputs": [
        {
          "components": [
            {
              "internalType": "string",
              "name": "name",
              "type": "string"
            },
            {
              "internalType": "string",
              "name": "author_id",
              "type": "string"
            },
            {
              "internalType": "string",
              "name": "country",
              "type": "string"
            },
            {
              "internalType": "uint256",
              "name": "revenue",
              "type": "uint256"
            },
            {
              "internalType": "bool",
              "name": "exists",
              "type": "bool"
            }
          ],
          "internalType": "struct digitalMarket.Author",
          "name": "",
          "type": "tuple"
        }
      ],
      "payable": false,
      "stateMutability": "view",
      "type": "function"
    },
    {
      "constant": true,
      "inputs": [
        {
          "internalType": "string",
          "name": "_key",
          "type": "string"
        }
      ],
      "name": "getReader",
      "outputs": [
        {
          "components": [
            {
              "internalType": "string",
              "name": "name",
              "type": "string"
            },
            {
              "internalType": "string",
              "name": "readerId",
              "type": "string"
            },
            {
              "internalType": "uint256",
              "name": "count",
              "type": "uint256"
            },
            {
              "internalType": "bool",
              "name": "exists",
              "type": "bool"
            }
          ],
          "internalType": "struct digitalMarket.Reader",
          "name": "",
          "type": "tuple"
        }
      ],
      "payable": false,
      "stateMutability": "view",
      "type": "function"
    },
    {
      "constant": false,
      "inputs": [
        {
          "internalType": "string",
          "name": "_title",
          "type": "string"
        },
        {
          "internalType": "string",
          "name": "_reader",
          "type": "string"
        },
        {
          "internalType": "string",
          "name": "prevOwnerID",
          "type": "string"
        },
        {
          "internalType": "string",
          "name": "newOwnerID",
          "type": "string"
        }
      ],
      "name": "resellBook",
      "outputs": [
        {
          "internalType": "uint256",
          "name": "",
          "type": "uint256"
        }
      ],
      "payable": false,
      "stateMutability": "nonpayable",
      "type": "function"
    }
  ],
  "bytecode": "0x608060405234801561001057600080fd5b5061274d806100206000396000f3fe608060405234801561001057600080fd5b50600436106100b45760003560e01c8063b905ad7811610071578063b905ad781461018f578063ca739a5d146101ad578063dc8ef352146101dd578063e54fdd5b146101f9578063f2c5bbde14610229578063f3986aeb14610245576100b4565b806316d1d941146100b9578063350d94d4146100d757806337a5011d1461010757806372d87ab2146101235780638276664814610153578063b6e3cc1a14610171575b600080fd5b6100c1610263565b6040516100ce9190612466565b60405180910390f35b6100f160048036036100ec9190810190611bb7565b610554565b6040516100fe9190612508565b60405180910390f35b610121600480360361011c9190810190611c64565b610797565b005b61013d60048036036101389190810190611bf8565b610890565b60405161014a919061254c565b60405180910390f35b61015b610e86565b604051610168919061254c565b60405180910390f35b610179610e8c565b604051610186919061254c565b60405180910390f35b610197610e92565b6040516101a4919061254c565b60405180910390f35b6101c760048036036101c29190810190611bb7565b610e98565b6040516101d4919061252a565b60405180910390f35b6101f760048036036101f29190810190611dbe565b611039565b005b610213600480360361020e9190810190611cfb565b611266565b604051610220919061254c565b60405180910390f35b610243600480360361023e9190810190611bf8565b611515565b005b61024d6115ec565b60405161025a9190612444565b60405180910390f35b60606005805480602002602001604051908101604052809291908181526020016000905b8282101561054b57838290600052602060002090600502016040518060a0016040529081600082018054600181600116156101000203166002900480601f0160208091040260200160405190810160405280929190818152602001828054600181600116156101000203166002900480156103435780601f1061031857610100808354040283529160200191610343565b820191906000526020600020905b81548152906001019060200180831161032657829003601f168201915b50505050508152602001600182018054600181600116156101000203166002900480601f0160208091040260200160405190810160405280929190818152602001828054600181600116156101000203166002900480156103e55780601f106103ba576101008083540402835291602001916103e5565b820191906000526020600020905b8154815290600101906020018083116103c857829003601f168201915b50505050508152602001600282018054600181600116156101000203166002900480601f0160208091040260200160405190810160405280929190818152602001828054600181600116156101000203166002900480156104875780601f1061045c57610100808354040283529160200191610487565b820191906000526020600020905b81548152906001019060200180831161046a57829003601f168201915b50505050508152602001600382018054600181600116156101000203166002900480601f0160208091040260200160405190810160405280929190818152602001828054600181600116156101000203166002900480156105295780601f106104fe57610100808354040283529160200191610529565b820191906000526020600020905b81548152906001019060200180831161050c57829003601f168201915b5050505050815260200160048201548152505081526020019060010190610287565b50505050905090565b61055c611969565b60018260405161056c9190612416565b90815260200160405180910390206040518060a0016040529081600082018054600181600116156101000203166002900480601f01602080910402602001604051908101604052809291908181526020018280546001816001161561010002031660029004801561061e5780601f106105f35761010080835404028352916020019161061e565b820191906000526020600020905b81548152906001019060200180831161060157829003601f168201915b50505050508152602001600182018054600181600116156101000203166002900480601f0160208091040260200160405190810160405280929190818152602001828054600181600116156101000203166002900480156106c05780601f10610695576101008083540402835291602001916106c0565b820191906000526020600020905b8154815290600101906020018083116106a357829003601f168201915b50505050508152602001600282018054600181600116156101000203166002900480601f0160208091040260200160405190810160405280929190818152602001828054600181600116156101000203166002900480156107625780601f1061073757610100808354040283529160200191610762565b820191906000526020600020905b81548152906001019060200180831161074557829003601f168201915b50505050508152602001600382015481526020016004820160009054906101000a900460ff1615151515815250509050919050565b61079f611969565b83816000018190525082816020018190525081816040018190525060008160600181815250506001816080019015159081151581525050806001846040516107e79190612416565b9081526020016040518091039020600082015181600001908051906020019061081192919061199a565b50602082015181600101908051906020019061082e92919061199a565b50604082015181600201908051906020019061084b92919061199a565b506060820151816003015560808201518160040160006101000a81548160ff021916908315150217905550905050600080815480929190600101919050555050505050565b60008015156003836040516108a59190612416565b908152602001604051809103902060030160009054906101000a900460ff1615151415610907576040517f08c379a00000000000000000000000000000000000000000000000000000000081526004016108fe906124e8565b60405180910390fd5b60005b6005805490508111610e4557836040516020016109279190612416565b604051602081830303815290604052805190602001206005828154811061094a57fe5b906000526020600020906005020160000160405160200161096b919061242d565b604051602081830303815290604052805190602001201415610e385761098f611a1a565b6005828154811061099c57fe5b90600052602060002090600502016000018054600181600116156101000203166002900480601f016020809104026020016040519081016040528092919081815260200182805460018160011615610100020316600290048015610a415780601f10610a1657610100808354040283529160200191610a41565b820191906000526020600020905b815481529060010190602001808311610a2457829003601f168201915b5050505050816000018190525060058281548110610a5b57fe5b90600052602060002090600502016001018054600181600116156101000203166002900480601f016020809104026020016040519081016040528092919081815260200182805460018160011615610100020316600290048015610b005780601f10610ad557610100808354040283529160200191610b00565b820191906000526020600020905b815481529060010190602001808311610ae357829003601f168201915b5050505050816020018190525060058281548110610b1a57fe5b90600052602060002090600502016002018054600181600116156101000203166002900480601f016020809104026020016040519081016040528092919081815260200182805460018160011615610100020316600290048015610bbf5780601f10610b9457610100808354040283529160200191610bbf565b820191906000526020600020905b815481529060010190602001808311610ba257829003601f168201915b5050505050816040018190525060058281548110610bd957fe5b906000526020600020906005020160040154816060018181525050600384604051610c049190612416565b90815260200160405180910390206000018054600181600116156101000203166002900480601f016020809104026020016040519081016040528092919081815260200182805460018160011615610100020316600290048015610ca95780601f10610c7e57610100808354040283529160200191610ca9565b820191906000526020600020905b815481529060010190602001808311610c8c57829003601f168201915b50505050508160800181905250600681908060018154018082558091505090600182039060005260206000209060050201600090919290919091506000820151816000019080519060200190610d0092919061199a565b506020820151816001019080519060200190610d1d92919061199a565b506040820151816002019080519060200190610d3a92919061199a565b50606082015181600301556080820151816004019080519060200190610d6192919061199a565b505050506000610e2b60058481548110610d7757fe5b90600052602060002090600502016003018054600181600116156101000203166002900480601f016020809104026020016040519081016040528092919081815260200182805460018160011615610100020316600290048015610e1c5780601f10610df157610100808354040283529160200191610e1c565b820191906000526020600020905b815481529060010190602001808311610dff57829003601f168201915b505050505083606001516118dd565b9050809350505050610e80565b808060010191505061090a565b6040517f08c379a0000000000000000000000000000000000000000000000000000000008152600401610e77906124a8565b60405180910390fd5b92915050565b60025481565b60005481565b60045481565b610ea0611a49565b600382604051610eb09190612416565b9081526020016040518091039020604051806080016040529081600082018054600181600116156101000203166002900480601f016020809104026020016040519081016040528092919081815260200182805460018160011615610100020316600290048015610f625780601f10610f3757610100808354040283529160200191610f62565b820191906000526020600020905b815481529060010190602001808311610f4557829003601f168201915b50505050508152602001600182018054600181600116156101000203166002900480601f0160208091040260200160405190810160405280929190818152602001828054600181600116156101000203166002900480156110045780601f10610fd957610100808354040283529160200191611004565b820191906000526020600020905b815481529060010190602001808311610fe757829003601f168201915b50505050508152602001600282015481526020016003820160009054906101000a900460ff1615151515815250509050919050565b6000151560018260405161104d9190612416565b908152602001604051809103902060040160009054906101000a900460ff16151514156110af576040517f08c379a00000000000000000000000000000000000000000000000000000000081526004016110a690612488565b60405180910390fd5b6110b7611a73565b848160000181905250838160200181905250828160800181815250506001826040516110e39190612416565b90815260200160405180910390206000018054600181600116156101000203166002900480601f0160208091040260200160405190810160405280929190818152602001828054600181600116156101000203166002900480156111885780601f1061115d57610100808354040283529160200191611188565b820191906000526020600020905b81548152906001019060200180831161116b57829003601f168201915b505050505081604001819052508181606001819052506005819080600181540180825580915050906001820390600052602060002090600502016000909192909190915060008201518160000190805190602001906111e892919061199a565b50602082015181600101908051906020019061120592919061199a565b50604082015181600201908051906020019061122292919061199a565b50606082015181600301908051906020019061123f92919061199a565b50608082015181600401555050506004600081548092919060010191905055505050505050565b600080151560038460405161127b9190612416565b908152602001604051809103902060030160009054906101000a900460ff16151514806112da5750600015156003836040516112b79190612416565b908152602001604051809103902060030160009054906101000a900460ff161515145b1561131a576040517f08c379a0000000000000000000000000000000000000000000000000000000008152600401611311906124e8565b60405180910390fd5b60005b60068054905081116114d2578560405160200161133a9190612416565b604051602081830303815290604052805190602001206006828154811061135d57fe5b906000526020600020906005020160000160405160200161137e919061242d565b604051602081830303815290604052805190602001201480156114095750846040516020016113ad9190612416565b60405160208183030381529060405280519060200120600682815481106113d057fe5b90600052602060002090600502016004016040516020016113f1919061242d565b60405160208183030381529060405280519060200120145b156114c55760038360405161141e9190612416565b90815260200160405180910390206000016006828154811061143c57fe5b9060005260206000209060050201600401908054600181600116156101000203166002900461146c929190611aa2565b5060006114966006838154811061147f57fe5b906000526020600020906005020160030154611952565b905080600683815481106114a657fe5b906000526020600020906005020160030181905550809250505061150d565b808060010191505061131d565b6040517f08c379a0000000000000000000000000000000000000000000000000000000008152600401611504906124c8565b60405180910390fd5b949350505050565b61151d611a49565b8281600001819052508181602001819052506001600254018160400181815250506001816060019015159081151581525050806003836040516115609190612416565b9081526020016040518091039020600082015181600001908051906020019061158a92919061199a565b5060208201518160010190805190602001906115a792919061199a565b506040820151816002015560608201518160030160006101000a81548160ff021916908315150217905550905050600260008154809291906001019190505550505050565b60606006805480602002602001604051908101604052809291908181526020016000905b828210156118d457838290600052602060002090600502016040518060a0016040529081600082018054600181600116156101000203166002900480601f0160208091040260200160405190810160405280929190818152602001828054600181600116156101000203166002900480156116cc5780601f106116a1576101008083540402835291602001916116cc565b820191906000526020600020905b8154815290600101906020018083116116af57829003601f168201915b50505050508152602001600182018054600181600116156101000203166002900480601f01602080910402602001604051908101604052809291908181526020018280546001816001161561010002031660029004801561176e5780601f106117435761010080835404028352916020019161176e565b820191906000526020600020905b81548152906001019060200180831161175157829003601f168201915b50505050508152602001600282018054600181600116156101000203166002900480601f0160208091040260200160405190810160405280929190818152602001828054600181600116156101000203166002900480156118105780601f106117e557610100808354040283529160200191611810565b820191906000526020600020905b8154815290600101906020018083116117f357829003601f168201915b5050505050815260200160038201548152602001600482018054600181600116156101000203166002900480601f0160208091040260200160405190810160405280929190818152602001828054600181600116156101000203166002900480156118bc5780601f10611891576101008083540402835291602001916118bc565b820191906000526020600020905b81548152906001019060200180831161189f57829003601f168201915b50505050508152505081526020019060010190611610565b50505050905090565b6000816001846040516118f09190612416565b908152602001604051809103902060030154016001846040516119139190612416565b9081526020016040518091039020600301819055506001836040516119389190612416565b908152602001604051809103902060030154905092915050565b60006064605a83028161196157fe5b049050919050565b6040518060a00160405280606081526020016060815260200160608152602001600081526020016000151581525090565b828054600181600116156101000203166002900490600052602060002090601f016020900481019282601f106119db57805160ff1916838001178555611a09565b82800160010185558215611a09579182015b82811115611a085782518255916020019190600101906119ed565b5b509050611a169190611b29565b5090565b6040518060a0016040528060608152602001606081526020016060815260200160008152602001606081525090565b60405180608001604052806060815260200160608152602001600081526020016000151581525090565b6040518060a0016040528060608152602001606081526020016060815260200160608152602001600081525090565b828054600181600116156101000203166002900490600052602060002090601f016020900481019282601f10611adb5780548555611b18565b82800160010185558215611b1857600052602060002091601f016020900482015b82811115611b17578254825591600101919060010190611afc565b5b509050611b259190611b29565b5090565b611b4b91905b80821115611b47576000816000905550600101611b2f565b5090565b90565b600082601f830112611b5f57600080fd5b8135611b72611b6d82612594565b612567565b91508082526020830160208301858383011115611b8e57600080fd5b611b998382846126a0565b50505092915050565b600081359050611bb1816126f3565b92915050565b600060208284031215611bc957600080fd5b600082013567ffffffffffffffff811115611be357600080fd5b611bef84828501611b4e565b91505092915050565b60008060408385031215611c0b57600080fd5b600083013567ffffffffffffffff811115611c2557600080fd5b611c3185828601611b4e565b925050602083013567ffffffffffffffff811115611c4e57600080fd5b611c5a85828601611b4e565b9150509250929050565b600080600060608486031215611c7957600080fd5b600084013567ffffffffffffffff811115611c9357600080fd5b611c9f86828701611b4e565b935050602084013567ffffffffffffffff811115611cbc57600080fd5b611cc886828701611b4e565b925050604084013567ffffffffffffffff811115611ce557600080fd5b611cf186828701611b4e565b9150509250925092565b60008060008060808587031215611d1157600080fd5b600085013567ffffffffffffffff811115611d2b57600080fd5b611d3787828801611b4e565b945050602085013567ffffffffffffffff811115611d5457600080fd5b611d6087828801611b4e565b935050604085013567ffffffffffffffff811115611d7d57600080fd5b611d8987828801611b4e565b925050606085013567ffffffffffffffff811115611da657600080fd5b611db287828801611b4e565b91505092959194509250565b60008060008060808587031215611dd457600080fd5b600085013567ffffffffffffffff811115611dee57600080fd5b611dfa87828801611b4e565b945050602085013567ffffffffffffffff811115611e1757600080fd5b611e2387828801611b4e565b9350506040611e3487828801611ba2565b925050606085013567ffffffffffffffff811115611e5157600080fd5b611e5d87828801611b4e565b91505092959194509250565b6000611e758383612278565b905092915050565b6000611e898383612303565b905092915050565b6000611e9c826125f5565b611ea6818561263b565b935083602082028501611eb8856125c0565b8060005b85811015611ef45784840389528151611ed58582611e69565b9450611ee083612621565b925060208a01995050600181019050611ebc565b50829750879550505050505092915050565b6000611f1182612600565b611f1b818561264c565b935083602082028501611f2d856125d0565b8060005b85811015611f695784840389528151611f4a8582611e7d565b9450611f558361262e565b925060208a01995050600181019050611f31565b50829750879550505050505092915050565b611f848161268a565b82525050565b6000611f9582612616565b611f9f818561267f565b9350611faf8185602086016126af565b80840191505092915050565b6000611fc68261260b565b611fd0818561265d565b9350611fe08185602086016126af565b611fe9816126e2565b840191505092915050565b60008154600181166000811461201157600181146120365761207a565b607f6002830416612022818761267f565b955060ff198316865280860193505061207a565b60028204612044818761267f565b955061204f856125e0565b60005b8281101561207157815481890152600182019150602081019050612052565b82880195505050505b505092915050565b600061208f601c8361266e565b91507f417574686f7220696420206973206e6f742072656769737465726564000000006000830152602082019050919050565b60006120cf60318361266e565b91507f5469746c6520646964206e6f74206d617463682e204e6f20626f6f6b2077697460008301527f682073756368206e616d6520666f756e640000000000000000000000000000006020830152604082019050919050565b600061213560468361266e565b91507f52656164657220646f6573206e6f74206f776e20626f6f6b207769746820707260008301527f6f7669646564207469746c65202d20496e76616c696420706172616d7320707260208301527f6f766964656400000000000000000000000000000000000000000000000000006040830152606082019050919050565b60006121c1601c8361266e565b91507f52656164657220696420206973206e6f742072656769737465726564000000006000830152602082019050919050565b600060a08301600083015184820360008601526122118282611fbb565b9150506020830151848203602086015261222b8282611fbb565b915050604083015184820360408601526122458282611fbb565b915050606083015161225a60608601826123f8565b50608083015161226d6080860182611f7b565b508091505092915050565b600060a08301600083015184820360008601526122958282611fbb565b915050602083015184820360208601526122af8282611fbb565b915050604083015184820360408601526122c98282611fbb565b91505060608301516122de60608601826123f8565b50608083015184820360808601526122f68282611fbb565b9150508091505092915050565b600060a08301600083015184820360008601526123208282611fbb565b9150506020830151848203602086015261233a8282611fbb565b915050604083015184820360408601526123548282611fbb565b9150506060830151848203606086015261236e8282611fbb565b915050608083015161238360808601826123f8565b508091505092915050565b600060808301600083015184820360008601526123ab8282611fbb565b915050602083015184820360208601526123c58282611fbb565b91505060408301516123da60408601826123f8565b5060608301516123ed6060860182611f7b565b508091505092915050565b61240181612696565b82525050565b61241081612696565b82525050565b60006124228284611f8a565b915081905092915050565b60006124398284611ff4565b915081905092915050565b6000602082019050818103600083015261245e8184611e91565b905092915050565b600060208201905081810360008301526124808184611f06565b905092915050565b600060208201905081810360008301526124a181612082565b9050919050565b600060208201905081810360008301526124c1816120c2565b9050919050565b600060208201905081810360008301526124e181612128565b9050919050565b60006020820190508181036000830152612501816121b4565b9050919050565b6000602082019050818103600083015261252281846121f4565b905092915050565b60006020820190508181036000830152612544818461238e565b905092915050565b60006020820190506125616000830184612407565b92915050565b6000604051905081810181811067ffffffffffffffff8211171561258a57600080fd5b8060405250919050565b600067ffffffffffffffff8211156125ab57600080fd5b601f19601f8301169050602081019050919050565b6000819050602082019050919050565b6000819050602082019050919050565b60008190508160005260206000209050919050565b600081519050919050565b600081519050919050565b600081519050919050565b600081519050919050565b6000602082019050919050565b6000602082019050919050565b600082825260208201905092915050565b600082825260208201905092915050565b600082825260208201905092915050565b600082825260208201905092915050565b600081905092915050565b60008115159050919050565b6000819050919050565b82818337600083830152505050565b60005b838110156126cd5780820151818401526020810190506126b2565b838111156126dc576000848401525b50505050565b6000601f19601f8301169050919050565b6126fc81612696565b811461270757600080fd5b5056fea365627a7a72315820955fa780dcf10d9790dac626f3a08cbbec5c49d76e839872b84bf2ec3ca1b6696c6578706572696d656e74616cf564736f6c634300050c0040",
  "source": "pragma solidity >=0.4.17 <0.6.0;\npragma experimental ABIEncoderV2;\n\ncontract digitalMarket {\n    struct Author {\n        string name;\n        string author_id;\n        string country;\n        uint   revenue;\n        bool exists;\n    }\n    uint public authorCount;\n    mapping (string => Author) authorBase;\n    \n    struct Reader {\n        string name;\n        string readerId;\n        uint count;\n        bool exists;\n    }\n    uint public readerCount;\n    mapping (string => Reader) readerBase;\n\n    struct Book {\n        string title;\n        string isbn;\n        string author;\n        string author_id;\n        uint price;\n    }\n    uint public bookCount;\n    Book[] private bookBase;\n    struct Book2 {\n        string title;\n        string isbn;\n        string author;\n        uint price;\n        string reader;\n    }\n    Book2[] private bookBase2;\n  //  mapping (string => Book) bookBase;\n\n    function registerAuthor(string memory _name, string memory _id, string memory _country) public {\n        Author memory a1;\n\n        a1.name = _name;\n        a1.author_id = _id;\n        a1.country = _country;\n        a1.revenue = 0;\n        a1.exists = true;\n\n    authorBase[_id] = a1;\n    authorCount++;\n    }\n    function registerReader(\n        string memory _name,\n        string memory _id) public {\n        Reader memory r1;\n\n        r1.name = _name;\n        r1.readerId = _id;\n        r1.count = readerCount + 1;\n        r1.exists = true;\n\n        readerBase[_id] = r1;\n        readerCount++;\n        }\n\n    function publishBook(\n        string memory _title,\n        string memory _isbn,\n        uint  _price,\n        string memory _author_id\n        ) public {\n        if(authorBase[_author_id].exists == false) {\n            revert('Author id  is not registered');  \n        }\n        Book memory b1;\n        b1.title = _title;\n        b1.isbn = _isbn;\n        b1.price = _price;\n        b1.author = authorBase[_author_id].name;\n        b1.author_id = _author_id;\n        bookBase.push(b1);\n        bookCount++;\n    }\n\n    function getAuthorBooks() public view returns(Book[] memory){\n        return bookBase;\n        \n    }\n    function purchaseBook(\n        string memory _title,\n        string memory _readerId\n\n        ) public returns(uint) {\n        if(readerBase[_readerId].exists == false) {\n            revert('Reader id  is not registered');  \n        }\n        uint itr;\n        for(itr; itr <= bookBase.length; itr++) {\n            if(keccak256(abi.encodePacked(bookBase[itr].title)) == keccak256(abi.encodePacked(_title))){\n                Book2 memory b2;\n                b2.title = bookBase[itr].title;\n                b2.isbn = bookBase[itr].isbn;\n                b2.author = bookBase[itr].author;\n                b2.price = bookBase[itr].price;\n                b2.reader = readerBase[_readerId].name;\n                bookBase2.push(b2);\n                uint rev = payAuthor(bookBase[itr].author_id, b2.price);\n                return(rev);\n            }\n            }\n            revert('Title did not match. No book with such name found');\n    }\n    function getReaderBooks() public view returns(Book2[] memory){\n        return bookBase2;\n        \n    }\n    function payAuthor(string memory _author_id, uint price) internal returns\n    (uint){\n         authorBase[_author_id].revenue = authorBase[_author_id].revenue + price;\n         return authorBase[_author_id].revenue;\n    }\n    function getAuthor(string memory _key) public view returns(Author memory){\n        return authorBase[_key];    \n    }\n    function getReader(string memory _key) public view returns(Reader memory) {\n        return readerBase[_key];\n    }\n    function resellBook(string memory _title,\n                        string memory _reader,\n                        string memory prevOwnerID,\n                        string memory newOwnerID )\n                        public returns(uint){\n        if(readerBase[prevOwnerID].exists == false || readerBase[newOwnerID].exists == false) {\n            revert('Reader id  is not registered');  \n        }\n        uint itr;\n        for(itr; itr <= bookBase2.length; itr++) {\n            if((keccak256(abi.encodePacked(bookBase2[itr].title)) == keccak256(abi.encodePacked(_title)))\n            &&  keccak256(abi.encodePacked(bookBase2[itr].reader)) == keccak256(abi.encodePacked(_reader))){\n                bookBase2[itr].reader = readerBase[newOwnerID].name;\n                uint depPrice = depreciate(bookBase2[itr].price);\n                bookBase2[itr].price = depPrice;\n                return(depPrice);\n            }\n        }\n        revert('Reader does not own book with provided title - Invalid params provided');\n}\n    function depreciate(uint price) internal pure returns (uint) {\n        return ((price*90)/100);\n    }\n}",
  "sourcePath": "/home/vector/digital_market/contracts/digitalMarket.sol",
  "compiler": {
    "name": "solc",
    "version": "0.5.12+commit.7709ece9.Emscripten.clang"
  },
  "schemaVersion": "3.0.20",
  "updatedAt": "2020-01-19T21:34:44.873Z",
  "networkType": "ethereum",
  "devdoc": {
    "methods": {}
  },
  "userdoc": {
    "methods": {}
  }
}