{
  "contractName": "digitalMarket",
  "abi": [
    {
      "constant": true,
      "inputs": [],
      "name": "authorCount",
      "outputs": [
        {
          "internalType": "uint256",
          "name": "",
          "type": "uint256"
        }
      ],
      "payable": false,
      "stateMutability": "view",
      "type": "function"
    },
    {
      "constant": true,
      "inputs": [],
      "name": "bookCount",
      "outputs": [
        {
          "internalType": "uint256",
          "name": "",
          "type": "uint256"
        }
      ],
      "payable": false,
      "stateMutability": "view",
      "type": "function"
    },
    {
      "constant": true,
      "inputs": [],
      "name": "readerCount",
      "outputs": [
        {
          "internalType": "uint256",
          "name": "",
          "type": "uint256"
        }
      ],
      "payable": false,
      "stateMutability": "view",
      "type": "function"
    },
    {
      "constant": false,
      "inputs": [
        {
          "internalType": "string",
          "name": "_name",
          "type": "string"
        },
        {
          "internalType": "string",
          "name": "_id",
          "type": "string"
        },
        {
          "internalType": "string",
          "name": "_country",
          "type": "string"
        }
      ],
      "name": "registerAuthor",
      "outputs": [],
      "payable": false,
      "stateMutability": "nonpayable",
      "type": "function"
    },
    {
      "constant": false,
      "inputs": [
        {
          "internalType": "string",
          "name": "_name",
          "type": "string"
        },
        {
          "internalType": "string",
          "name": "_id",
          "type": "string"
        }
      ],
      "name": "registerReader",
      "outputs": [],
      "payable": false,
      "stateMutability": "nonpayable",
      "type": "function"
    },
    {
      "constant": false,
      "inputs": [
        {
          "internalType": "string",
          "name": "_title",
          "type": "string"
        },
        {
          "internalType": "string",
          "name": "_isbn",
          "type": "string"
        },
        {
          "internalType": "uint256",
          "name": "_price",
          "type": "uint256"
        },
        {
          "internalType": "string",
          "name": "_author_id",
          "type": "string"
        }
      ],
      "name": "publishBook",
      "outputs": [],
      "payable": false,
      "stateMutability": "nonpayable",
      "type": "function"
    },
    {
      "constant": true,
      "inputs": [],
      "name": "getAuthorBooks",
      "outputs": [
        {
          "components": [
            {
              "internalType": "string",
              "name": "title",
              "type": "string"
            },
            {
              "internalType": "string",
              "name": "isbn",
              "type": "string"
            },
            {
              "internalType": "string",
              "name": "author",
              "type": "string"
            },
            {
              "internalType": "string",
              "name": "author_id",
              "type": "string"
            },
            {
              "internalType": "uint256",
              "name": "price",
              "type": "uint256"
            }
          ],
          "internalType": "struct digitalMarket.Book[]",
          "name": "",
          "type": "tuple[]"
        }
      ],
      "payable": false,
      "stateMutability": "view",
      "type": "function"
    },
    {
      "constant": false,
      "inputs": [
        {
          "internalType": "string",
          "name": "_title",
          "type": "string"
        },
        {
          "internalType": "string",
          "name": "_readerId",
          "type": "string"
        }
      ],
      "name": "purchaseBook",
      "outputs": [],
      "payable": false,
      "stateMutability": "nonpayable",
      "type": "function"
    },
    {
      "constant": true,
      "inputs": [],
      "name": "getReaderBooks",
      "outputs": [
        {
          "components": [
            {
              "internalType": "string",
              "name": "title",
              "type": "string"
            },
            {
              "internalType": "string",
              "name": "isbn",
              "type": "string"
            },
            {
              "internalType": "string",
              "name": "author",
              "type": "string"
            },
            {
              "internalType": "uint256",
              "name": "price",
              "type": "uint256"
            },
            {
              "internalType": "string",
              "name": "reader",
              "type": "string"
            }
          ],
          "internalType": "struct digitalMarket.Book2[]",
          "name": "",
          "type": "tuple[]"
        }
      ],
      "payable": false,
      "stateMutability": "view",
      "type": "function"
    }
  ],
  "bytecode": "0x608060405234801561001057600080fd5b50611c1e806100206000396000f3fe608060405234801561001057600080fd5b50600436106100935760003560e01c8063b6e3cc1a11610066578063b6e3cc1a1461010c578063b905ad781461012a578063dc8ef35214610148578063f2c5bbde14610164578063f3986aeb1461018057610093565b806316d1d9411461009857806337a5011d146100b657806372d87ab2146100d257806382766648146100ee575b600080fd5b6100a061019e565b6040516100ad91906119a7565b60405180910390f35b6100d060048036036100cb91908101906113f1565b61048f565b005b6100ec60048036036100e79190810190611385565b610588565b005b6100f6610b6a565b6040516101039190611a29565b60405180910390f35b610114610b70565b6040516101219190611a29565b60405180910390f35b610132610b76565b60405161013f9190611a29565b60405180910390f35b610162600480360361015d9190810190611488565b610b7c565b005b61017e60048036036101799190810190611385565b610da9565b005b610188610e80565b6040516101959190611985565b60405180910390f35b60606005805480602002602001604051908101604052809291908181526020016000905b8282101561048657838290600052602060002090600502016040518060a0016040529081600082018054600181600116156101000203166002900480601f01602080910402602001604051908101604052809291908181526020018280546001816001161561010002031660029004801561027e5780601f106102535761010080835404028352916020019161027e565b820191906000526020600020905b81548152906001019060200180831161026157829003601f168201915b50505050508152602001600182018054600181600116156101000203166002900480601f0160208091040260200160405190810160405280929190818152602001828054600181600116156101000203166002900480156103205780601f106102f557610100808354040283529160200191610320565b820191906000526020600020905b81548152906001019060200180831161030357829003601f168201915b50505050508152602001600282018054600181600116156101000203166002900480601f0160208091040260200160405190810160405280929190818152602001828054600181600116156101000203166002900480156103c25780601f10610397576101008083540402835291602001916103c2565b820191906000526020600020905b8154815290600101906020018083116103a557829003601f168201915b50505050508152602001600382018054600181600116156101000203166002900480601f0160208091040260200160405190810160405280929190818152602001828054600181600116156101000203166002900480156104645780601f1061043957610100808354040283529160200191610464565b820191906000526020600020905b81548152906001019060200180831161044757829003601f168201915b50505050508152602001600482015481525050815260200190600101906101c2565b50505050905090565b6104976111be565b83816000018190525082816020018190525081816040018190525060008160600181815250506001816080019015159081151581525050806001846040516104df9190611957565b908152602001604051809103902060008201518160000190805190602001906105099291906111ef565b5060208201518160010190805190602001906105269291906111ef565b5060408201518160020190805190602001906105439291906111ef565b506060820151816003015560808201518160040160006101000a81548160ff021916908315150217905550905050600080815480929190600101919050555050505050565b6000151560038260405161059c9190611957565b908152602001604051809103902060030160009054906101000a900460ff16151514156105fe576040517f08c379a00000000000000000000000000000000000000000000000000000000081526004016105f590611a09565b60405180910390fd5b60005b6005805490508111610b2f578260405160200161061e9190611957565b604051602081830303815290604052805190602001206005828154811061064157fe5b9060005260206000209060050201600001604051602001610662919061196e565b604051602081830303815290604052805190602001201415610b225761068661126f565b6005828154811061069357fe5b90600052602060002090600502016000018054600181600116156101000203166002900480601f0160208091040260200160405190810160405280929190818152602001828054600181600116156101000203166002900480156107385780601f1061070d57610100808354040283529160200191610738565b820191906000526020600020905b81548152906001019060200180831161071b57829003601f168201915b505050505081600001819052506005828154811061075257fe5b90600052602060002090600502016001018054600181600116156101000203166002900480601f0160208091040260200160405190810160405280929190818152602001828054600181600116156101000203166002900480156107f75780601f106107cc576101008083540402835291602001916107f7565b820191906000526020600020905b8154815290600101906020018083116107da57829003601f168201915b505050505081602001819052506005828154811061081157fe5b90600052602060002090600502016002018054600181600116156101000203166002900480601f0160208091040260200160405190810160405280929190818152602001828054600181600116156101000203166002900480156108b65780601f1061088b576101008083540402835291602001916108b6565b820191906000526020600020905b81548152906001019060200180831161089957829003601f168201915b50505050508160400181905250600582815481106108d057fe5b9060005260206000209060050201600401548160600181815250506003836040516108fb9190611957565b90815260200160405180910390206000018054600181600116156101000203166002900480601f0160208091040260200160405190810160405280929190818152602001828054600181600116156101000203166002900480156109a05780601f10610975576101008083540402835291602001916109a0565b820191906000526020600020905b81548152906001019060200180831161098357829003601f168201915b505050505081608001819052506006819080600181540180825580915050906001820390600052602060002090600502016000909192909190915060008201518160000190805190602001906109f79291906111ef565b506020820151816001019080519060200190610a149291906111ef565b506040820151816002019080519060200190610a319291906111ef565b50606082015181600301556080820151816004019080519060200190610a589291906111ef565b50505050610b2060058381548110610a6c57fe5b90600052602060002090600502016003018054600181600116156101000203166002900480601f016020809104026020016040519081016040528092919081815260200182805460018160011615610100020316600290048015610b115780601f10610ae657610100808354040283529160200191610b11565b820191906000526020600020905b815481529060010190602001808311610af457829003601f168201915b50505050508260600151611171565b505b8080600101915050610601565b6040517f08c379a0000000000000000000000000000000000000000000000000000000008152600401610b61906119e9565b60405180910390fd5b60025481565b60005481565b60045481565b60001515600182604051610b909190611957565b908152602001604051809103902060040160009054906101000a900460ff1615151415610bf2576040517f08c379a0000000000000000000000000000000000000000000000000000000008152600401610be9906119c9565b60405180910390fd5b610bfa61129e565b84816000018190525083816020018190525082816080018181525050600182604051610c269190611957565b90815260200160405180910390206000018054600181600116156101000203166002900480601f016020809104026020016040519081016040528092919081815260200182805460018160011615610100020316600290048015610ccb5780601f10610ca057610100808354040283529160200191610ccb565b820191906000526020600020905b815481529060010190602001808311610cae57829003601f168201915b50505050508160400181905250818160600181905250600581908060018154018082558091505090600182039060005260206000209060050201600090919290919091506000820151816000019080519060200190610d2b9291906111ef565b506020820151816001019080519060200190610d489291906111ef565b506040820151816002019080519060200190610d659291906111ef565b506060820151816003019080519060200190610d829291906111ef565b50608082015181600401555050506004600081548092919060010191905055505050505050565b610db16112cd565b828160000181905250818160200181905250600160025401816040018181525050600181606001901515908115158152505080600383604051610df49190611957565b90815260200160405180910390206000820151816000019080519060200190610e1e9291906111ef565b506020820151816001019080519060200190610e3b9291906111ef565b506040820151816002015560608201518160030160006101000a81548160ff021916908315150217905550905050600260008154809291906001019190505550505050565b60606006805480602002602001604051908101604052809291908181526020016000905b8282101561116857838290600052602060002090600502016040518060a0016040529081600082018054600181600116156101000203166002900480601f016020809104026020016040519081016040528092919081815260200182805460018160011615610100020316600290048015610f605780601f10610f3557610100808354040283529160200191610f60565b820191906000526020600020905b815481529060010190602001808311610f4357829003601f168201915b50505050508152602001600182018054600181600116156101000203166002900480601f0160208091040260200160405190810160405280929190818152602001828054600181600116156101000203166002900480156110025780601f10610fd757610100808354040283529160200191611002565b820191906000526020600020905b815481529060010190602001808311610fe557829003601f168201915b50505050508152602001600282018054600181600116156101000203166002900480601f0160208091040260200160405190810160405280929190818152602001828054600181600116156101000203166002900480156110a45780601f10611079576101008083540402835291602001916110a4565b820191906000526020600020905b81548152906001019060200180831161108757829003601f168201915b5050505050815260200160038201548152602001600482018054600181600116156101000203166002900480601f0160208091040260200160405190810160405280929190818152602001828054600181600116156101000203166002900480156111505780601f1061112557610100808354040283529160200191611150565b820191906000526020600020905b81548152906001019060200180831161113357829003601f168201915b50505050508152505081526020019060010190610ea4565b50505050905090565b806001836040516111829190611957565b908152602001604051809103902060030154016001836040516111a59190611957565b9081526020016040518091039020600301819055505050565b6040518060a00160405280606081526020016060815260200160608152602001600081526020016000151581525090565b828054600181600116156101000203166002900490600052602060002090601f016020900481019282601f1061123057805160ff191683800117855561125e565b8280016001018555821561125e579182015b8281111561125d578251825591602001919060010190611242565b5b50905061126b91906112f7565b5090565b6040518060a0016040528060608152602001606081526020016060815260200160008152602001606081525090565b6040518060a0016040528060608152602001606081526020016060815260200160608152602001600081525090565b60405180608001604052806060815260200160608152602001600081526020016000151581525090565b61131991905b808211156113155760008160009055506001016112fd565b5090565b90565b600082601f83011261132d57600080fd5b813561134061133b82611a71565b611a44565b9150808252602083016020830185838301111561135c57600080fd5b611367838284611b71565b50505092915050565b60008135905061137f81611bc4565b92915050565b6000806040838503121561139857600080fd5b600083013567ffffffffffffffff8111156113b257600080fd5b6113be8582860161131c565b925050602083013567ffffffffffffffff8111156113db57600080fd5b6113e78582860161131c565b9150509250929050565b60008060006060848603121561140657600080fd5b600084013567ffffffffffffffff81111561142057600080fd5b61142c8682870161131c565b935050602084013567ffffffffffffffff81111561144957600080fd5b6114558682870161131c565b925050604084013567ffffffffffffffff81111561147257600080fd5b61147e8682870161131c565b9150509250925092565b6000806000806080858703121561149e57600080fd5b600085013567ffffffffffffffff8111156114b857600080fd5b6114c48782880161131c565b945050602085013567ffffffffffffffff8111156114e157600080fd5b6114ed8782880161131c565b93505060406114fe87828801611370565b925050606085013567ffffffffffffffff81111561151b57600080fd5b6115278782880161131c565b91505092959194509250565b600061153f8383611823565b905092915050565b600061155383836118ae565b905092915050565b600061156682611ad2565b6115708185611b18565b93508360208202850161158285611a9d565b8060005b858110156115be578484038952815161159f8582611533565b94506115aa83611afe565b925060208a01995050600181019050611586565b50829750879550505050505092915050565b60006115db82611add565b6115e58185611b29565b9350836020820285016115f785611aad565b8060005b8581101561163357848403895281516116148582611547565b945061161f83611b0b565b925060208a019950506001810190506115fb565b50829750879550505050505092915050565b600061165082611af3565b61165a8185611b5c565b935061166a818560208601611b80565b80840191505092915050565b600061168182611ae8565b61168b8185611b3a565b935061169b818560208601611b80565b6116a481611bb3565b840191505092915050565b6000815460018116600081146116cc57600181146116f157611735565b607f60028304166116dd8187611b5c565b955060ff1983168652808601935050611735565b600282046116ff8187611b5c565b955061170a85611abd565b60005b8281101561172c5781548189015260018201915060208101905061170d565b82880195505050505b505092915050565b600061174a601c83611b4b565b91507f417574686f7220696420206973206e6f742072656769737465726564000000006000830152602082019050919050565b600061178a603183611b4b565b91507f5469746c6520646964206e6f74206d617463682e204e6f20626f6f6b2077697460008301527f682073756368206e616d6520666f756e640000000000000000000000000000006020830152604082019050919050565b60006117f0601c83611b4b565b91507f52656164657220696420206973206e6f742072656769737465726564000000006000830152602082019050919050565b600060a08301600083015184820360008601526118408282611676565b9150506020830151848203602086015261185a8282611676565b915050604083015184820360408601526118748282611676565b91505060608301516118896060860182611939565b50608083015184820360808601526118a18282611676565b9150508091505092915050565b600060a08301600083015184820360008601526118cb8282611676565b915050602083015184820360208601526118e58282611676565b915050604083015184820360408601526118ff8282611676565b915050606083015184820360608601526119198282611676565b915050608083015161192e6080860182611939565b508091505092915050565b61194281611b67565b82525050565b61195181611b67565b82525050565b60006119638284611645565b915081905092915050565b600061197a82846116af565b915081905092915050565b6000602082019050818103600083015261199f818461155b565b905092915050565b600060208201905081810360008301526119c181846115d0565b905092915050565b600060208201905081810360008301526119e28161173d565b9050919050565b60006020820190508181036000830152611a028161177d565b9050919050565b60006020820190508181036000830152611a22816117e3565b9050919050565b6000602082019050611a3e6000830184611948565b92915050565b6000604051905081810181811067ffffffffffffffff82111715611a6757600080fd5b8060405250919050565b600067ffffffffffffffff821115611a8857600080fd5b601f19601f8301169050602081019050919050565b6000819050602082019050919050565b6000819050602082019050919050565b60008190508160005260206000209050919050565b600081519050919050565b600081519050919050565b600081519050919050565b600081519050919050565b6000602082019050919050565b6000602082019050919050565b600082825260208201905092915050565b600082825260208201905092915050565b600082825260208201905092915050565b600082825260208201905092915050565b600081905092915050565b6000819050919050565b82818337600083830152505050565b60005b83811015611b9e578082015181840152602081019050611b83565b83811115611bad576000848401525b50505050565b6000601f19601f8301169050919050565b611bcd81611b67565b8114611bd857600080fd5b5056fea365627a7a723158201d36a036f957667a72221bfdfedaed74dcb25f212e427ba3f1434ce1114cd08a6c6578706572696d656e74616cf564736f6c634300050c0040",
  "source": "pragma solidity >=0.4.13 <0.6.0;\npragma experimental ABIEncoderV2;\n\ncontract digitalMarket {\n    struct Author {\n        string name;\n        string author_id;\n        string country;\n        uint   revenue;\n        bool exists;\n    }\n    uint public authorCount;\n    mapping (string => Author) authorBase;\n    \n    struct Reader {\n        string name;\n        string readerId;\n        uint count;\n        bool exists;\n    }\n    uint public readerCount;\n    mapping (string => Reader) readerBase;\n\n    struct Book {\n        string title;\n        string isbn;\n        string author;\n        string author_id;\n        uint price;\n    }\n    uint public bookCount;\n    Book[] private bookBase;\n    struct Book2 {\n        string title;\n        string isbn;\n        string author;\n        uint price;\n        string reader;\n    }\n    Book2[] private bookBase2;\n  //  mapping (string => Book) bookBase;\n\n    function registerAuthor(string memory _name, string memory _id, string memory _country) public {\n        Author memory a1;\n\n        a1.name = _name;\n        a1.author_id = _id;\n        a1.country = _country;\n        a1.revenue = 0;\n        a1.exists = true;\n\n    authorBase[_id] = a1;\n    authorCount++;\n    }\n    function registerReader(\n        string memory _name,\n        string memory _id) public {\n        Reader memory r1;\n\n        r1.name = _name;\n        r1.readerId = _id;\n        r1.count = readerCount + 1;\n        r1.exists = true;\n\n        readerBase[_id] = r1;\n        readerCount++;\n        }\n\n    function publishBook(\n        string memory _title,\n        string memory _isbn,\n        uint  _price,\n        string memory _author_id\n        ) public {\n        if(authorBase[_author_id].exists == false) {\n            revert('Author id  is not registered');  \n        }\n        Book memory b1;\n        b1.title = _title;\n        b1.isbn = _isbn;\n        b1.price = _price;\n        b1.author = authorBase[_author_id].name;\n        b1.author_id = _author_id;\n        bookBase.push(b1);\n        bookCount++;\n    }\n    // function getAuthorBooks (string memory _authorName) public view  returns(string[] memory){\n    //     uint itr;\n    //     uint itr2;\n    //     string[] memory bookList;\n    //     for(itr; itr <= bookBase.length; itr++) {\n    //         if(keccak256(abi.encodePacked(bookBase[itr].author)) == keccak256(abi.encodePacked(_authorName))){\n    //             Book memory b1;\n    //             b1 = bookBase[itr];\n    //             bookList[itr2] = b1.title;\n    //             itr2++;\n    //         }\n        \n    //     }\n    //     return bookList;\n    // }\n    function getAuthorBooks() public view returns(Book[] memory){\n        return bookBase;\n        \n    }\n       function purchaseBook(\n        string memory _title,\n        string memory _readerId\n\n        ) public {\n        if(readerBase[_readerId].exists == false) {\n            revert('Reader id  is not registered');  \n        }\n        uint itr;\n        for(itr; itr <= bookBase.length; itr++) {\n            if(keccak256(abi.encodePacked(bookBase[itr].title)) == keccak256(abi.encodePacked(_title))){\n                Book2 memory b2;\n                b2.title = bookBase[itr].title;\n                b2.isbn = bookBase[itr].isbn;\n                b2.author = bookBase[itr].author;\n                b2.price = bookBase[itr].price;\n                b2.reader = readerBase[_readerId].name;\n                bookBase2.push(b2);\n                payAuthor(bookBase[itr].author_id, b2.price);\n            }\n            }\n            revert('Title did not match. No book with such name found');\n    }\n    function getReaderBooks() public view returns(Book2[] memory){\n        return bookBase2;\n        \n    }\n    function payAuthor(string memory _author_id, uint price) internal {\n         authorBase[_author_id].revenue = authorBase[_author_id].revenue + price;\n    }\n}",
  "sourcePath": "/home/vector/digital_market/contracts/digiMarket.sol",
  "compiler": {
    "name": "solc",
    "version": "0.5.12+commit.7709ece9.Emscripten.clang"
  },
  "schemaVersion": "3.0.20",
  "updatedAt": "2020-01-02T20:47:45.950Z",
  "devdoc": {
    "methods": {}
  },
  "userdoc": {
    "methods": {}
  }
}